:10091600E4F510F511F5128511168512177B287D61
:10092600337FFE120B7B120AAF120B078F10EF6498
:10093600017018AF11EF3395E0FED3EF9403EE6428
:1009460080948050E105110511803AE5106402702B
:1009560018AF11EF3395E0FEC3EF9402EE64809476
:100966008040C315111511801CE5106403701FAF7C
:1009760012EF3395E0FED3EF9403EE64809480503B
:10098600A505120512AD12AF11120BAD8098E51038
:1009960064047092AF12EF3395E0FEC3EF9402EE5B
:1009A60064809480408015121512AD12AF11120B9F
:0409B600AD02092C59
:100B5C00011D00011900011A00011B00011C0001FC
:020B6C0018006F
:100B7B008F1D8D198B1A85161B85171C7589018581
:0C0B8B001D8C85198AD2A9D2AFD28C2211
:050BAD008F1B8D1C22CE
:03000B00020A46A0
:100A4600C0E0C0D075D000C000C004C005C006C05C
:010A56000798
:100A5700851D8C85198A0518E518C3951A400375F5
:100A67001800AF1BEF3395E0FEAD187C00D3ED9F68
:100A7700EE6480F87480985004D2A18002C2A1AFBE
:100A87001CEF3395E0FED3ED9FEE6480F8EC6480B5
:090A9700985004D2A28002C2A210
:0F0AA000D007D006D005D004D000D0D0D0E0329F
:040BB200010101013B
:0C0B6E00040C0101010104080101010157
:100B0700E4FFFEEFC3940474809480501E74082F92
:100B1700F8E6FD740C2FF8E6FC6D600CED6003EF52
:0D0B270004FE74082FF8A6040F80D8AF0656
:010B3400229E
:100AAF0078137C007D007BFF7A0B79B27E007F0488
:100ABF001208D0E4FFA2B233F513A2B3E433F51456
:100ACF00A2B4E433F515A2B5E433F516EFC39404DD
:100ADF0074809480502174132FF8E6FD7C00700809
:100AEF00740C2FF8E4F6800CED64014C7006740C56
:070AFF002FF876010F80D5EE
:010B060022CC
:030000000209BA38
:0C09BA00787FE4F6D8FD758125020A0163
:100B97008F218E208D1F8C1E781E74FF1208F8EC93
:060BA7004D4E4F70F322D9
:080B35008F258E248D238C22F4
:100B3D00E4FB782274FF1208F8EC4D4E4F600FE481
:0E0B4D00FBEBD394787480948050E70B80F318
:010B5B002277
:1009C600020916E493A3F8E493A34003F68001F228
:1009D60008DFF48029E493A3F85407240CC8C33332
:1009E600C4540F4420C8834004F456800146F6DF01
:1009F600E4800B0102040810204080900B5CE47E2A
:100A0600019360BCA3FF543F30E509541FFEE493F5
:100A1600A360010ECF54C025E060A840B8E493A3BC
:100A2600FAE493A3F8E493A3C8C582C8CAC583CAE7
:100A3600F0A3C8C582C8CAC583CADFE9DEE780BE9F
:010B7A00007A
:10080000E709F608DFFA8046E709F208DFFA803EDA
:1008100088828C83E709F0A3DFFA8032E309F608C7
:10082000DFFA8078E309F208DFFA807088828C832F
:10083000E309F0A3DFFA806489828A83E0A3F608E3
:10084000DFFA805889828A83E0A3F208DFFA804CBD
:1008500080D280FA80C680D4806980F28033801094
:1008600080A680EA809A80A880DA80E280CA8033FD
:1008700089828A83ECFAE493A3C8C582C8CCC58375
:10088000CCF0A3C8C582C8CCC583CCDFE9DEE78045
:100890000D89828A83E493A3F608DFF9ECFAA9F0C4
:1008A000EDFB2289828A83ECFAE0A3C8C582C8CC1A
:1008B000C583CCF0A3C8C582C8CCC583CCDFEADE33
:1008C000E880DB89828A83E493A3F208DFF980CC95
:1008D00088F0EF60010E4E60C388F0ED2402B4048E
:1008E0000050B9F582EB2402B4040050AF23234535
:0608F00082239008507302
:1008F6007401FF3395E0FEFDFC080808E6CF2FF6ED
:1009060018E6CE3EF618E6CD3DF618E6CC3CF622C5
:00000001FF
