:020000040800F2
:10000000000400204501000839030008A902000887
:10001000350300088D0100085505000800000000A8
:1000200000000000000000000000000005040008BF
:100030009101000800000000C1030008F10400085D
:100040008D0500085F0100085F0100085F010008DE
:100050005F0100085F0100085F0100085F01000800
:100060005F0100085F0100085F0100085F010008F0
:100070005F0100085F0100085F0100085F010008E0
:100080005F0100085F0100085F0100085F010008D0
:100090005F0100085F0100085F0100085F010008C0
:1000A0005F0100085F0100085F0100085F010008B0
:1000B0005F0100085F0100085F0100085F010008A0
:1000C0005F0100085F0100085F0100085F01000890
:1000D0005F0100085F0100085F0100085F01000880
:1000E0005F0100085F0100085F0100085F01000870
:1000F0005F0100085F0100085F0100085F01000860
:100100005F0100085F0100085F0100085F0100084F
:100110005F0100085F0100085F0100085F0100083F
:100120005F0100085F0100085F0100085F0100082F
:10013000DFF80CD000F018F800480047450600082A
:10014000000400200648804706480047FEE7FEE717
:10015000FEE7FEE7FEE7FEE7FEE7FEE7FEE7FEE777
:10016000F504000831010008064C074D06E0E06880
:1001700040F0010394E8070098471034AC42F6D3EE
:10018000FFF7DAFF90060008A006000800BFFEE7B0
:1001900070472DE9F041024600250026002000238B
:1001A0000024002791F803C00CF00F0591F803C05C
:1001B0000CF0100CBCF1000F03D091F802C04CEA17
:1001C000050591F800C0BCF1000F31D01468002083
:1001D0002BE04FF0010C0CFA00F3B1F800C00CEA70
:1001E00003069E4220D183004FF00F0C0CFA03F758
:1001F000BC4305FA03FC4CEA040491F803C0BCF1CB
:10020000280F06D14FF0010C0CFA00FCC2F814C004
:100210000AE091F803C0BCF1480F05D14FF0010C82
:100220000CFA00FCC2F810C0401C0828D1D314609E
:10023000B1F800C0BCF1FF0F34DD546800202EE09F
:1002400000F1080C4FF0010808FA0CF3B1F800C0F7
:100250000CEA03069E4221D183004FF00F0C0CFAEA
:1002600003F7BC4305FA03FC4CEA040491F803C00D
:10027000BCF1280F05D100F1080C08FA0CF8C2F8FF
:10028000148091F803C0BCF1480F07D100F1080CAD
:100290004FF0010808FA0CF8C2F81080401C08283A
:1002A000CED35460BDE8F08100BFFEE770B50646CE
:1002B0000C4615460121C80200F084F8304600F0D3
:1002C00083F9284600F088F9204600F091F97F2054
:1002D00000F048F900F040F900F062F900F04AF946
:1002E00070BD000008B50121102000F07BF804204B
:1002F000ADF8000010208DF8030001208DF80200F9
:1003000069460B48FFF745FF0820ADF800001020B4
:100310008DF8030001208DF8020069460448FFF7BC
:1003200038FF0420024908610820086108BD000068
:100330000010014000BFFEE77047000070B50021CB
:1003400000230F22C47804B3154C246804F4E0643D
:10035000C4F5E064210AC1F10403CA40447804FAF8
:1003600003F184781440214309010E4C0678A1550D
:10037000047804F01F050124AC4005786D11AD0030
:1003800005F1E025C5F8004109E0047804F01F05F7
:100390000124AC40044D0678761145F8264070BD26
:1003A0000CED00E000E400E080E100E002490143E0
:1003B000024A1160704700000000FA050CED00E0F1
:1003C0007047000029B1064AD2690243044BDA6142
:1003D00004E0034AD2698243014BDA6170470000AE
:1003E0000010024029B1064A92690243044B9A6107
:1003F00004E0034A92698243014B9A61704700000E
:1004000000100240704710B500F002F810BD000067
:100410000CB50020019000903348006840F4803013
:100420003149086000BF3048006800F40030009097
:100430000198401C0190009818B90198B0F5A06F80
:10044000F1D12948006800F4003010B1012000907B
:1004500001E0002000900098012843D12348006863
:1004600040F01000214908600846006820F00300B1
:1004700008600846006840F0020008601A484068BA
:10048000194948600846406848600846406840F49A
:10049000806048600846406820F47C104860084648
:1004A000406840F4E81048600846006840F08070FA
:1004B000086000BF0C48006800F000700028F9D008
:1004C0000948406820F00300074948600846406832
:1004D00040F00200486000BF0348406800F00C0094
:1004E0000828F9D10CBD0000001002400020024095
:1004F0007047000010B51348006840F00100114932
:10050000086008464068104908400E49486008469F
:1005100000680E4908400B4908600846006820F44E
:10052000802008600846406820F4FE0048604FF4D0
:100530001F008860FFF767FF4FF000600449086004
:1005400010BD0000001002400000FFF8FFFFF6FEA3
:1005500008ED00E000BFFEE7002001490860704799
:10056000082C004040F08001014A116070470000F3
:10057000002C00400120014908607047A48005421A
:1005800010B57F2000F020F810BD000010B5FFF777
:10059000E3FF08200149486110BD00000010014040
:1005A00008B54FF4C060FFF701FF00208DF8000090
:1005B0008DF801008DF8020001208DF803006846D7
:1005C000FFF7BCFE08BD000000F07F01014A11608A
:1005D00070470000002C00400021044A126822F4F9
:1005E000C0710143014A116070470000042C0040B3
:1005F00008B5002100910749096821F07F010091A9
:1006000000F07F01009A11430091024A00991160A5
:1006100008BD0000042C004002E008C8121F08C1F9
:10062000002AFAD170477047002001E001C1121F73
:10063000002AFBD1704700BF0100A0F10100FBD1EF
:1006400070470000FFF74EFE04200E4948610E4837
:10065000FFF7F1FF4FF4C0725F217F20FFF726FE06
:100660000A48006800F07F050BE004200549086196
:100670000648001F006800F07F04AC4201DAFFF773
:100680007FFFF2E700100140FFFF8F00042C0040C5
:10069000A006000800000020000400002806000852
:0400000508000131BD
:00000001FF
