:020000040800F2
:100000001804002045010008570400084F040008A8
:10001000530400088D010008490B0008000000008F
:100020000000000000000000000000007105000852
:100030001102000800000000590400085D060008D5
:100040005F0100085F0100085F0100085F01000810
:100050005F0100085F0100085F0100085F01000800
:100060005F0100085F0100085F0100085F010008F0
:100070005F0100085F0100085F0100085F010008E0
:100080005F0100085F0100085F0100085F010008D0
:100090005F0100085F0100085F0100085F010008C0
:1000A0005F0100085F0100085F0100085F010008B0
:1000B0005F0100085F0100085F0100085F010008A0
:1000C0005F0100085F0100085F0100085F01000890
:1000D0005F0100085F0100085F0100085F01000880
:1000E0005F0100085F0100085F0100085F01000870
:1000F0005F0100085F0100085F0100085F01000860
:100100005F0100085F0100085F0100085F0100084F
:100110005F0100085F0100085F0100085F0100083F
:100120005F0100085F0100085F0100085F0100082F
:10013000DFF80CD000F018F800480047C10B0008A9
:10014000180400200648804706480047FEE7FEE7FF
:10015000FEE7FEE7FEE7FEE7FEE7FEE7FEE7FEE777
:100160006106000831010008064C074D06E0E06812
:1001700040F0010394E8070098471034AC42F6D3EE
:10018000FFF7DAFFF00B0008100C000800BFFEE7D5
:1001900000B585B00121042000F070F94FF4007023
:1001A000ADF8100018208DF8130003208DF8120010
:1001B00004A9154800F0C0F84FF48060ADF81000B5
:1001C00004208DF8130004A90F4800F0B5F80121B0
:1001D000880300F053F94FF4E13000900020ADF8AF
:1001E0000400ADF80600ADF80800ADF80C000C20D6
:1001F000ADF80A006946054800F036FC01210348C5
:1002000000F018FC05B000BD0008014000380140B6
:100210007047000008B50121042000F01FF94020BC
:10022000ADF8000018208DF8030003208DF80200BF
:100230006946124800F080F80121042000F00EF910
:100240008020ADF8000069460C4800F075F80121E7
:10025000082000F003F90120ADF8000069460848C5
:1002600000F06AF80121082000F0F8F80220ADF84B
:1002700000006946024800F05FF808BD0008014030
:10028000000C014010B5FFF7C5FF00F001F810BDEC
:1002900000B587B00121022000F0E0F80920ADF898
:1002A00014004720ADF810000020ADF81600ADF89E
:1002B00012008DF8180004A91E4800F069FB6020A8
:1002C000ADF800000120ADF802000020ADF80800F4
:1002D0000520ADF806006946164800F0FDF9082132
:1002E000144800F045FA0420ADF8060069461148AC
:1002F00000F048FA08210F4800F096FA0320ADF804
:10030000060069460B4800F09DFA0821094800F0F4
:10031000E9FA0220ADF806006946064800F0ECFA5A
:100320000821044800F026FB0121024800F0C8F92A
:1003300007B000BD000400402DE9F0410246002551
:100340000026002000230024002791F803C00CF0B1
:100350000F0591F803C00CF0100CBCF1000F03D096
:1003600091F802C04CEA050591F800C0BCF1000FFD
:1003700031D0146800202BE04FF0010C0CFA00F390
:10038000B1F800C00CEA03069E4220D183004FF072
:100390000F0C0CFA03F7BC4305FA03FC4CEA040407
:1003A00091F803C0BCF1280F06D14FF0010C0CFAF4
:1003B00000FCC2F814C00AE091F803C0BCF1480F79
:1003C00005D14FF0010C0CFA00FCC2F810C0401C23
:1003D0000828D1D31460B1F800C0BCF1FF0F34DDA0
:1003E000546800202EE000F1080C4FF0010808FAD4
:1003F0000CF3B1F800C00CEA03069E4221D1830041
:100400004FF00F0C0CFA03F7BC4305FA03FC4CEA5F
:10041000040491F803C0BCF1280F05D100F1080CC9
:1004200008FA0CF8C2F8148091F803C0BCF1480F28
:1004300007D100F1080C4FF0010808FA0CF8C2F8D7
:100440001080401C0828CED35460BDE8F08100BF66
:10045000FEE700BFFEE770477047000029B1064A7B
:10046000D2690243044BDA6104E0034AD269824351
:10047000014BDA61704700000010024029B1064AC2
:1004800092690243044B9A6104E0034A92698243F1
:10049000014B9A61704700000010024030B5002106
:1004A0000022002400232D4D6D6805F00C0121B1C0
:1004B000042905D0082923D105E0294D056022E053
:1004C000274D05601FE0254D6D6805F47012234D22
:1004D0006D6805F48034022505EB92421CB9214D6C
:1004E000554305600BE01D4D6D6805F400351DB1E9
:1004F0001C4D5543056002E0194D5543056002E06F
:10050000174D056000BF00BF144D6D6805F0F00188
:100510000909154D6B5C0568DD4045600F4D6D6840
:1005200005F4E061090A104D6B5C4568DD408560AB
:100530000A4D6D6805F46051C90A0B4D6B5C456846
:10054000DD40C560054D6D6805F44041890B074DE0
:100550006B5CC568B5FBF3F5056130BD001002406A
:1005600000127A0000093D00000000201000002069
:10057000704710B500F002F810BD00000CB5002067
:10058000019000903348006840F4803031490860A1
:1005900000BF3048006800F4003000900198401C13
:1005A0000190009818B90198B0F5A06FF1D12948D1
:1005B000006800F4003010B10120009001E000203C
:1005C00000900098012843D12348006840F01000B3
:1005D000214908600846006820F0030008600846CA
:1005E000006840F0020008601A48406819494860F5
:1005F0000846406848600846406840F480604860AB
:100600000846406820F47C1048600846406840F482
:10061000E81048600846006840F08070086000BF3D
:100620000C48006800F000700028F9D009484068C4
:1006300020F00300074948600846406840F0020087
:10064000486000BF0348406800F00C000828F9D15A
:100650000CBD000000100240002002407047000066
:1006600010B51348006840F00100114908600846C1
:100670004068104908400E494860084600680E4925
:1006800008400B4908600846006820F48020086094
:100690000846406820F4FE0048604FF41F00886060
:1006A000FFF767FF4FF000600449086010BD0000CD
:1006B000001002400000FFF8FFFFF6FE08ED00E02A
:1006C00021B1028842F00102028004E002884FF664
:1006D000FE731A400280704770B500240022002388
:1006E000058C4FF6FE7635400584028C8388048B9A
:1006F0004FF68F752C40B51E2C400D882C43751E6F
:100700002A400D892A434D882A43144DA8420BD014
:10071000134DA84208D0134DA84205D0124DA8424F
:1007200002D0124DA84213D14FF6F7752A404D89D9
:100730002A434FF6FB752A408D882A434FF6FF6502
:100740002B404FF6FF552B408D892B43CD892B43F2
:1007500083800483CD888586028470BD002C01408F
:100760000034014000400140004401400048014085
:100770000A460021018B4FF6F7731940114301839C
:100780007047000070B5002400220023058C4FF64E
:10079000EF7635400584028C8388048B48F6FF751C
:1007A0002C404FF6FF452C400D884FF6FF7606EAA9
:1007B00005252C434FF6DF752A400D8906EA0515FD
:1007C0002A434D8806EA05152A43154DA84202D052
:1007D000144DA8421DD14FF67F752A404D894FF622
:1007E000FF7606EA05152A434FF6BF752A408D8825
:1007F00006EA05152A434FF6FF352B404FF2FF75E9
:100800002B408D8906EA85052B43CD8906EA8505AF
:100810002B4383800483CD880587028470BD00004C
:10082000002C0140003401400A460021018B4FF2A8
:10083000FF7319404FF6FF7303EA02231943018344
:100840007047000070B5002400220023058C4FF68D
:10085000FF6635400584028C8388848B4FF68F7544
:100860002C404FF6FC752C400D882C434FF6FF555D
:100870002A400D894FF6FF7606EA05252A434D8862
:1008800006EA05252A43154DA84202D0144DA84278
:100890001DD14FF2FF752A404D894FF6FF7606EACB
:1008A00005252A434FF6FF352A408D8806EA05259F
:1008B0002A434EF6FF752B404DF6FF752B408D8970
:1008C00006EA05152B43CD8906EA05152B438380DF
:1008D0008483CD888587028470BD0000002C014090
:1008E000003401400A460021818B4FF6F77319400E
:1008F000114381837047000070B50022002300245B
:10090000058C4EF6FF7635400584038C8488828BF7
:1009100048F6FF752A404FF6FF452A400D884FF6EE
:10092000FF7606EA05252A434DF6FF752B400D8913
:1009300006EA05352B434D8806EA05352B430B4D5A
:10094000A84202D00A4DA84208D14BF6FF752C40B0
:100950008D894FF6FF7606EA85152C4384808283C5
:10096000CD88A0F84050038470BD0000002C0140E9
:10097000003401400A460021818B4FF2FF73194079
:100980004FF6FF7303EA0223194381837047000087
:10099000002202881D4B98420ED01D4B98420BD06E
:1009A000B0F1804F08D01B4B984205D01A4B9842AB
:1009B00002D01A4B984204D14FF68F731A404B88DD
:1009C0001A43174B984207D0164B984204D04FF663
:1009D000FF431A40CB881A4302808B8883850B889B
:1009E00003850A4B98420BD0094B984208D00E4B16
:1009F000984205D00D4B984202D00D4B984201D140
:100A00000B7A03860123838270470000002C01408B
:100A1000003401400004004000080040000C004089
:100A2000001000400014004000400140004401401C
:100A30000048014021B1828942F40052828104E0E1
:100A400082894DF6FF731A4082817047024600206A
:100A5000B1F5007F00D100BF13880B400BB101201E
:100A600000E00020704700002DE9F04786B0054601
:100A70000E460024A24600BFA1460027B08900B15F
:100A800000BF2F462C8A4CF6FF700440F0880443C8
:100A90002C82AC894EF6F3100440B08831890843AB
:100AA000718908430443AC81AC8A4FF6FF4004408F
:100AB000B0890443AC8201A8FFF7F0FC1F488742CD
:100AC00002D1DDF810A001E0DDF80CA0A88900F447
:100AD000004040B10AEBCA0000EB0A10316849003F
:100AE000B0FBF1F807E00AEBCA0000EB0A1031682E
:100AF0008900B0FBF1F86420B8FBF0F00401200994
:100B0000642101FB1089A88900F4004040B1322023
:100B100000EBC900B0FBF1F000F00700044308E06F
:100B2000322000EB09106421B0FBF1F000F00F005F
:100B300004432C8106B0BDE8F08700000038014076
:100B4000C1F308028280704700BFFEE7014A0249F4
:100B500000F013B89D0B00081400002002E008C844
:100B6000121F08C1002AFAD170477047002001E027
:100B700001C1121F002AFBD170472DE9F041164632
:100B80000F460446002503E03946B047641C6D1C3F
:100B900020780028F8D12846BDE8F08170B50446D9
:100BA0000D46E1B20548FFF7CBFF00BF80210348A7
:100BB000FFF74CFF0028F9D0204670BD00380140F7
:100BC000FFF7E6FAFFF75EFB02A0FFF7BFFF00BFEB
:100BD000FEE70000CDA8D3C3B6A8CAB1C6F72DCB97
:100BE000C4C2B750574DCAE4B3F6CAB5D1E9210023
:100BF000100C000800000020180000005C0B00082A
:100C0000280C000818000020000400006C0B0008ED
:100C100000000000010203040102030406070809A2
:080C20000204060800000000B8
:0400000508000131BD
:00000001FF
