:020000040800F2
:100000000004002045010008E1030008BB020008CD
:10001000DD0300088D010008A505000800000000B0
:10002000000000000000000000000000550400086F
:100030009101000800000000E303000841050008EA
:100040005F0100085F0100085F0100085F01000810
:100050005F0100085F0100085F0100085F01000800
:100060005F0100085F0100085F0100085F010008F0
:100070005F0100085F0100085F0100085F010008E0
:100080005F0100085F0100085F0100085F010008D0
:100090005F0100085F0100085F0100085F010008C0
:1000A0005F0100085F0100085F0100085F010008B0
:1000B0005F0100085F0100085F0100085F010008A0
:1000C0005F0100085F0100085F0100085F01000890
:1000D0005F0100085F0100085F0100085F01000880
:1000E0005F0100085F0100085F0100085F01000870
:1000F0005F0100085F0100085F0100085F01000860
:100100005F0100085F0100085F0100085F0100084F
:100110005F0100085F0100085F0100085F0100083F
:100120005F0100085F0100085F0100085F0100082F
:10013000DFF80CD000F018F800480047D50500089B
:10014000000400200648804706480047FEE7FEE717
:10015000FEE7FEE7FEE7FEE7FEE7FEE7FEE7FEE777
:100160004505000831010008064C074D06E0E0682F
:1001700040F0010394E8070098471034AC42F6D3EE
:10018000FFF7DAFF4C0600085C06000800BFFEE738
:1001900070472DE9F041024600250026002000238B
:1001A0000024002791F803C00CF00F0591F803C05C
:1001B0000CF0100CBCF1000F03D091F802C04CEA17
:1001C000050591F800C0BCF1000F31D01468002083
:1001D0002BE04FF0010C0CFA00F3B1F800C00CEA70
:1001E00003069E4220D183004FF00F0C0CFA03F758
:1001F000BC4305FA03FC4CEA040491F803C0BCF1CB
:10020000280F06D14FF0010C0CFA00FCC2F814C004
:100210000AE091F803C0BCF1480F05D14FF0010C82
:100220000CFA00FCC2F810C0401C0828D1D314609E
:10023000B1F800C0BCF1FF0F34DD546800202EE09F
:1002400000F1080C4FF0010808FA0CF3B1F800C0F7
:100250000CEA03069E4221D183004FF00F0C0CFAEA
:1002600003F7BC4305FA03FC4CEA040491F803C00D
:10027000BCF1280F05D100F1080C08FA0CF8C2F8FF
:10028000148091F803C0BCF1480F07D100F1080CAD
:100290004FF0010808FA0CF8C2F81080401C08283A
:1002A000CED35460BDE8F0810246002093680B4035
:1002B0000BB1012000E00020704700BFFEE770B5E1
:1002C00005460C4645F2555000F02CF8E0B200F01F
:1002D0001DF8204600F020F800F010F800F002F8B9
:1002E00070BD00004CF6CC4001490860704700002A
:1002F0000030004010B500F001F810BD4AF6AA2009
:100300000149086070470000003000400149486022
:1003100070470000003000400149886070470000CD
:100320000030004001490860704700000030004084
:1003300008B50121142000F055F80120ADF80000A7
:1003400004208DF8030069460748FFF722FF4FF4A9
:100350000050ADF8000004208DF803006946034802
:10036000FFF717FF08BD0000000801400010014022
:1003700070B504460D4629462046FFF795FF012833
:1003800008D100BF29462046FFF78EFF0128F9D08B
:10039000012070BD0020FCE708B50121102000F00D
:1003A00021F80420ADF8000010208DF80300012092
:1003B0008DF8020069460848FFF7EBFE0820ADF80B
:1003C000000010208DF8030001208DF8020069461E
:1003D0000148FFF7DEFE08BD0010014000BFFEE748
:1003E0007047704729B1064A92690243044B9A61EB
:1003F00004E0034A92698243014B9A61704700000E
:10040000001002400348406A40F080700149486291
:10041000704700000010024010B501460022002382
:1004200000204A11012A02D1094C236806E0022A61
:1004300002D1074C236A01E0054C636A01F01F02F8
:10044000012494401C400CB1012000E0002010BDAC
:1004500000100240704710B500F002F810BD000017
:100460000CB50020019000903348006840F48030C3
:100470003149086000BF3048006800F40030009047
:100480000198401C0190009818B90198B0F5A06F30
:10049000F1D12948006800F4003010B1012000902B
:1004A00001E0002000900098012843D12348006813
:1004B00040F01000214908600846006820F0030061
:1004C00008600846006840F0020008601A4840686A
:1004D000194948600846406848600846406840F44A
:1004E000806048600846406820F47C1048600846F8
:1004F000406840F4E81048600846006840F08070AA
:10050000086000BF0C48006800F000700028F9D0B7
:100510000948406820F003000749486008464068E1
:1005200040F00200486000BF0348406800F00C0043
:100530000828F9D10CBD0000001002400020024044
:100540007047000010B51348006840F001001149E1
:10055000086008464068104908400E49486008464F
:1005600000680E4908400B4908600846006820F4FE
:10057000802008600846406820F4FE0048604FF480
:100580001F008860FFF767FF4FF0006004490860B4
:1005900010BD0000001002400000FFF8FFFFF6FE53
:1005A00008ED00E000BFFEE702E008C8121F08C126
:1005B000002AFAD170477047002001E001C1121FE4
:1005C000002AFBD1704700BF0100A0F10100FBD160
:1005D00070470000FFF7E0FE08201849086104207A
:1005E00008611748FFF7EFFF7D20FFF715FF28B1DF
:1005F000042012494861FFF705FF0BE008200F496E
:1006000048611048FFF7DFFF08200C4908610D48DA
:10061000FFF7D9FFFFF78CFE40F271210420FFF7AE
:100620004EFE0AE001210848FFF7A2FE012804D18E
:10063000FFF760FE082001494861F3E70010014020
:10064000FFFF8F00FFFF0F00000801405C0600085D
:0C0650000000002000040000B8050008B5
:0400000508000131BD
:00000001FF
