:10088C00E4F508F509F50D7B647DF67FFF1208F79A
:10089C00E50870140509AF09EF3395E0FEEF6432FB
:1008AC004E7012750801800D1509AF09EF3395E0F4
:1008BC004F7002F5087F01120910AF09120936803A
:0108CC00CF5C
:0F092600011200010F00011000011100010E006D
:10091000AD071FED600FE4FEEED3947874809480F1
:0509200050EE0E80F313
:0109250022AF
:1008F7008F128D0F8B10850D1143890185128C8501
:090907000F8AD2A9D2AFD28C22D2
:030936008F1122FC
:03000B000208CD1B
:0408CD00C0E0C0D0F7
:1008D10085128C850F8A050EE50EC39510400375B0
:1008E1000E00E50ED3951150057580FF80037580CC
:0108F1000006
:0508F200D0D0D0E0327F
:03000000020800F3
:0C080000787FE4F6D8FD758112020847ED
:10080C0002088CE493A3F8E493A34003F68001F26E
:10081C0008DFF48029E493A3F85407240CC8C333ED
:10082C00C4540F4420C8834004F456800146F6DFBC
:10083C00E4800B0102040810204080900926E47E1D
:10084C00019360BCA3FF543F30E509541FFEE493B1
:10085C00A360010ECF54C025E060A840B8E493A378
:10086C00FAE493A3F8E493A3C8C582C8CAC583CAA3
:10087C00F0A3C8C582C8CAC583CADFE9DEE780BE5B
:0109350000C1
:00000001FF
