:08131C001212B812129D80FBB1
:0D12F800BEE0C0EB3A20256420636D0A00C3
:0B131100E59830E1FB5398FD8F992216
:1012E700C2A2D2A200000000000000000000C2A2BB
:0112F70022D4
:10122A00AF8CEFFEAD8A7C00E42DFFEC3EFEAD07ED
:10123A00FCE412090B7B8E7AE3798A783F12080064
:10124A00120944AD07AC06E412090B7B967A43797E
:10125A008B783C1208001209447BFF7A1279F88EC7
:0B126A00258F26120E1DE4F58CF58A7E
:011275002256
:1012B800758921759840758DFD438840439802E4EF
:0912C800F58CF58AD2A9D2AF22FF
:10129D001212E730A3FDD28C20A3FDC28C12122AAC
:0B12AD007F0A7E007D007C00021276AC
:03000000021305E3
:0C130500787FE4F6D8FD75813D02131CD2
:1012D1008F0B8E0A8D098C08780874FF120D67EC4C
:0612E1004D4E4F70F32298
:081276008F258E248D238C22AC
:10127E00E4FB782274FF120D67EC4D4E4F600FE4C5
:0E128E00FBEBD394787480948050E70B80F3D0
:01129C00222F
:10080000EC4D6011E8497017ED33EC3304600DE4F2
:10081000FCFFFEFD22E933E8330470F80209B01250
:10082000097B58046009E4CC248150062850090251
:1008300009BA2840030209B7C0E0EB4A7044B98006
:1008400006D0E0FB0209A6EF4E701CBD8008EBFF4E
:10085000EAFEE9FD80EBE98DF0A4FEE5F00208E98F
:10086000E9CDF9EAFEEBFFEF89F0A4FCE5F0CE89D3
:10087000F0A42EFFE435F0CD89F0A42DFEE435F090
:100880008067EF4E7005BD80D780C3EF8BF0A4ACBE
:10089000F0EE8BF0A42CFCE435F0F8EF8AF0A42CF9
:1008A000E5F038FCE433CB8DF0A42CFCE5F03BF80C
:1008B000EE8AF0A42CFCE5F038F8E433CF89F0A4FC
:1008C0002CFCE5F038CF3400CE89F0A42FFFE5F002
:1008D0003EFEE433C98DF0A42EFEE5F039CD8AF05A
:1008E000A42FFFE5F03EFEE43DFD33D0E0FB5007D2
:1008F0000BBB000F0209BAEC2CFCEF33FFEE33FE0A
:06090000ED33FD02099237
:1009060075F020800E75F010800575F0087D007E6C
:10091600007F003392D530D503120D57EC334010CB
:10092600EF33FFEE33FEED33FDEC33FCD5F0ED2275
:0E093600E5F0247EA2D513CC92E7CDCEFF22B1
:10094400EDD2E7CD33EC3392D524814006E4FFFEAB
:10095400FDFC22FCE4CFCECDCC24E0501174FF800A
:10096400EDC3CC13CCCD13CDCE13CECF13CF0470A7
:07097400F030D5DE020D5743
:100DBB00E5392425F8E60539227822300702782513
:100DCB00E475F001120D85020CFF2000EB7F2ED293
:100DDB00008018EF540F2490D43440D4FF30040B10
:100DEB00EF24BFB41A0050032461FFE53A600215EB
:100DFB003A053DE53D7002053C30070D7822E47560
:100E0B00F001120D85EF020D450213117403D20789
:100E1B008003E4C207F5398B228A238924E4F53A4F
:100E2B00F53CF53DE53A60077F20120DF680F57530
:100E3B003BFFC201C200C202C203C205C206C20806
:100E4B00120DC4FF700D3007057F00120E07AF3D6A
:100E5B00AE3C22B4255FC2D5C204120DC4FF24D010
:100E6B00B40A00501A75F00A783A30D50508B6FF67
:100E7B000106C6A426F620D5047002D20380D9241D
:100E8B00CFB41A00EF5004C2E5D2040210F4D20121
:100E9B0080C6D20080C0D20280BCD2D580BAD20527
:100EAB0080B47F20120DF62002077401B53A004082
:100EBB00F1120DBBFF120DF6020E2FD208D20680D7
:100ECB0095120DBBFB120DBBFA120DBBF94A4B7001
:100EDB000679EB7A117BFF20022EE53A602A7E0021
:100EEB008E82758300120D1860060EEE653B70F056
:100EFB00C2D5EBC0E0EAC0E0E9C0E0EE121154D07D
:100F0B00E0F9D0E0FAD0E0FB120CFFFF60AAEBC0D7
:100F1B00E0EAC0E0E9C0E0120DF6D0E02401F9D020
:100F2B00E03400FAD0E0FBE53B0460DCD53BD98034
:100F3B0087D20280A212113760F7E53B70010412D1
:100F4B0009C5A93B600DE53B600914F53B1211DEA9
:100F5B00EF60F3EA30E702F404C3995077EAF42523
:100F6B003B0430E701E404F53B800D12113760C1FF
:100F7B00EA053B253B1209C5EA7838F630E701E470
:100F8B00253B04D53B0420050114121154E4C0E0A9
:100F9B001211DE7838E6601320E70714F6120DDE27
:100FAB00802204F6D0E014C0E07F00120DDEE53B9A
:100FBB006007120DD5153B800B300503120DD5D0F4
:100FCB00E0020E2FD0E00480C512113760A0E53B84
:100FDB00041209C57838EAF6E53B200502600104E6
:050FEB00240412115462
:100FF00074FF04C0E01211DE120DDEE53B20050295
:101000006003120DD5D0E0B53BE87F45120DE878BE
:1010100038E67F2B30E7047F2DF404C0E0120DF694
:10102000D0E075F00A84C0F0120DDFD0E0120DDFC1
:10103000020E2F791080027908C206C2088008D2F9
:10104000D5790A8004790AC2D5E53B047002F53BE4
:10105000E4FAFDFEFF120DBBFC7B08200113120D0C
:10106000BBFD7B1030000A120DBBFE120DBBFF7BD7
:1010700020EC3382D592D55013C3E43000069FFF95
:10108000E49EFEE42001039DFDE49CFCE4CBF8C259
:1010900001EC700CCFCECDCCE824F8F870F38017BB
:1010A000C3EF33FFEE33FEED33FDEC33FCEB33FBEC
:1010B000994002FB0FD8E9EB300105F8D0E0C448B5
:1010C000B201C0E00AEC4D4E4F78207B0070C2EABE
:1010D000B53B0040BCC0E0121156D0F0D0E020017A
:1010E00004C4C0E0C4B201C0F0120DDFD0F0D5F0EE
:1010F000EB020E2F120D950ECC531033580E9D4C53
:101100000E994210374F103F44103F490EB2431022
:1011100045550F76460FD4450F4047120B500EA190
:101120002D0EA52E0EC82B0EA9230EC62011F42AB3
:101130000E614800000EC0E53BB4FF03753B06128C
:101140000DBBFC120DBBFD120DBBFE120DBBFF78DB
:10115000310209F4790AA2D5200314300509B91027
:10116000020404B9080104A2D5200602500104209B
:1011700002689202B53A005034C0E07F2030031973
:101180007F30A20272067205500F1211ADC202C268
:1011900006C205C2087F30800F300503E9C0E012A7
:1011A0000DF6300503D0E0F9D0E0B53ACC300517A4
:1011B0007F30B9100C120DF67F583004077F78800D
:1011C00003B90803120DF63002057F2D020DF67FDC
:1011D000202008F87F2B2006F322920280CF7F0088
:1011E000B4070050052431F8E6FF22286E756C6CB8
:1011F0002900D201120DBB3001F8C201783A30D576
:101200000108F6020E612D50434958120DBB24030C
:10121000B405004001E490120693120DE7743A12EF
:0A1220000DE7D203753A0402103303
:10097B00E9D2E7C933E833F892D5EDD2E7CD33ECC2
:07098B0033FC5002B2D5223B
:10099200EC30E7100FBF000C0EBE00080DBD0004C6
:1009A2000BEB6014A2D5EB13FCED92E7FD2274FF72
:1009B200FCFDFEFF22E480F8A2D574FF13FC7D80CB
:0309C200E480EFDF
:1009C500F920E72824F950037907E4F42402FB18F9
:1009D500DBFDE624FB5014E9600DE4F618E604F6A9
:0F09E500B40A08E4F6D9F57401F60A22C2D52245
:1009F400ED33EC3392D5FA602AB4FF33EDC2E77BD2
:100A0400FF60067A0A7919E4227A0A792220D50449
:100A14007A0A791D224E614E002B494E46002D491B
:100A24004E4600E47A08F608DAFC7B00740722E8F4
:100A3400C0E0ECC0E0EDC0E0EEC0E0EFC0E0EA757D
:100A4400F010A4CAABF075F04DA42BFBE435F0FC18
:100A5400EA2410FAEB34C5FBEC34D9FCEDC2E7FF11
:100A640075F056A4F42411C5F0F434C58FF0A42A0B
:100A7400E5F03BE43CF620E714120CBFD0E0FFD0D5
:100A8400E0FED0E0FDD0E0FC120BF28014F404127E
:100A94000CBFD0E0FFD0E0FED0E0FDD0E0FC1208B7
:100AA40000D0E0F8E6FAEDD2E7CD33EC332482FB54
:100AB400E4C3CF33CFCE33CECD33CD33DBF37B079B
:100AC40075F00A846004F6081B0AE5F0F6088FF056
:100AD400740AA4FFACF08EF0740AA42CFEACF0509F
:100AE400010C8DF0740AA42CFDE435F0F608DBDE6D
:030AF40074072262
:100AF7000209B0E86480F8E933E83360110460F074
:100B0700ED33EC337009E8FCE9FDEAFEEBFF220464
:100B170060DED3EB9FEA9EE99DE8C2E78CF0C2F75F
:100B270095F0400CE8CCF8E9CDF9EACEFAEBCFFB2B
:100B370012097B85D0F05804700320D5B3E8047000
:100B4700075002B2D50209BA92D5EC0460F7E4CC9B
:100B5700C0E0C398F8603B94186008400DD0E0FBF4
:100B6700020992E4FBFAC9FC8028E830E406E4C9EC
:100B7700FBE4CAFCE830E305E4C9CACBFCE8540748
:100B87006010F8C3E913F9EA13FAEB13FBEC13FC53
:100B9700D8F130F52FC3E49CFCEF9BFFEE9AFEEDF6
:100BA70099FDD0E0FBEF4E4D4C701222DB0302099A
:100BB700B7EC2CFCEF33FFEE33FEED33FDED30E702
:100BC700EB020992EF2BFFEE3AFEED39FDD0E0FB89
:100BD70050130BBB00030209BAED13FDEE13FEEF32
:080BE70013FFEC13FC0209925C
:100BEF000209BAEC5D046005E8590470030209B00C
:100BFF0012097B580460F6EC4860F2EC7004FDFEBD
:100C0F00FF22C860DB2481C85009C39860025006D8
:100C1F000209B79850CAF582E9294B4A7005AB8291
:100C2F000209A675F0007C1A7880C3EF9BEE9AED4F
:100C3F0099400DC3EF9BFFEE9AFEED99FDE842F050
:100C4F00DC23ACF0D0E0FFD0E0FED0E0FDAB8220A3
:100C5F00E7101BEB60BAEC2CFCEF33FFEE33FEED2D
:100C6F0033FD020992E803F830E705C0F075F00094
:100C7F00EF2FFFEE33FEED33FD40B830E7C280AA11
:100C8F003F8000004120000042C80000447A00006D
:100C9F00461C400047C35000497424004B189680EF
:100CAF004CBEBC205A0E1BCA6753C21C749DC5AEE6
:100CBF00FB60065407601C2323120CEDEB543860C5
:100CCF0009120CD9120CE8120800ECF8EDF9EEFA43
:100CDF00EFCB22EB120CE880F1543803241C900C5C
:100CEF008FFE93FC0EEE93FD0EEE930ECE93FF222E
:100CFF00BB010689828A83E0225002E722BBFE02F3
:090D0F00E32289828A83E4932225
:100D1800BB010CE58229F582E5833AF583E0225090
:100D280006E92582F8E622BBFE06E92582F8E222DA
:0D0D3800E58229F582E5833AF583E49322F4
:100D4500BB010689828A83F0225002F722BBFE018D
:020D5500F32287
:0E0D5700C3E49FFFE49EFEE49DFDE49CFC22AD
:100D65007401FF3395E0FEFDFC080808E6CF2FF679
:100D750018E6CE3EF618E6CD3DF618E6CC3CF62252
:100D8500FAE6FB0808E6F925F0F618E6CA3AF6226F
:100D9500D083D082F8E4937012740193700DA3A3ED
:100DA50093F8740193F5828883E473740293686001
:060DB500EFA3A3A380DF01
:00000001FF
