:020000040800F2
:1000000028040020450100080F0B00080B0B000816
:100010000D0B0008D3090008610E00080000000065
:10002000000000000000000000000000690C000853
:10003000590A000800000000890B0008210D000883
:100040005F0100085F0100085F0100085F01000810
:100050005F0100085F0100085F0100085F01000800
:100060005F0100085F0100085F0100085F010008F0
:100070005F0100085F0100085F0100085F010008E0
:100080005F0100085F010008610700085F010008C8
:100090005F0100085F0100085F0100085F010008C0
:1000A0005F0100085F0100085F0100085F010008B0
:1000B0005F0100085F0100085F0100085F010008A0
:1000C0005F0100085F0100085F0100085F01000890
:1000D0005F0100085F0100085F0100085F01000880
:1000E0005F0100085F0100085F0100085F01000870
:1000F0005F0100085F0100085F0100085F01000860
:100100005F0100085F0100085F0100085F0100084F
:100110005F0100085F0100085F0100085F0100083F
:100120005F0100085F0100085F0100085F0100082F
:10013000DFF80CD000F0D0FA004800475D17000847
:10014000280400200648804706480047FEE7FEE7EF
:10015000FEE7FEE7FEE7FEE7FEE7FEE7FEE7FEE777
:10016000250D000831010008420005D0C0F3C75238
:100170005242914201DC0020704700EBC1507047B1
:100180002DE9FE4F81EA030404F0004421F0004110
:1001900000944FF0000B23F0004350EA01045ED0BE
:1001A00052EA03045BD0C3F30A54C1F30A552C444A
:1001B000A4F2F3340194A0FB0254C1F3130141F4FF
:1001C0008011C3F3130343F4801301FB024400FBCB
:1001D000034E840A970A44EA815447EA8357A4FBF2
:1001E000076802958D0A05FB07854FEA932C04FBEF
:1001F0000C542705029D4FEA065847EA1637B5EB1F
:1002000008056EEB070C870E920E47EA811742EA4B
:100210008312A7FB0201B6EB0B0164EB00042B0D6C
:1002200043EA0C335E1844EB1C50DA465146E7FBB8
:100230000201C5F313044FEA0B3343EA14534FEAA8
:100240000432019C43EA0603A4F10C040294009CCE
:10025000CDE900B400F0ABF803B0BDE8F08F0020AA
:100260000146F9E796230022114600F063B800F03A
:10027000004230F000400AD0C10D01F56071C0F3BA
:10028000160042EA0151C20840071143704700209E
:100290000146704730B50B4601460020202201245C
:1002A00009E021FA02F59D4205D303FA02F5491B44
:1002B00004FA02F52844151EA2F10102F1DC30BD5A
:1002C0002DE9F05F0546002092469B46884606468B
:1002D000814640241BE0284641464746224600F01E
:1002E0001CFA53465A46C01A914110D3114618467B
:1002F000224600F003FA2D1A67EB01084F4622460A
:100300000120002100F0FAF917EB00094E41201EF0
:10031000A4F10104DFDC484631462A464346BDE8E5
:10032000F09F0029A8BF7047401C490008BF20F07B
:100330000100704710B4B0FA80FC00FA0CF050EAEB
:10034000010404BF10BC704749B1CCF1200421FA6C
:1003500004F411FA0CF118BF012121430843A3EB67
:100360000C01CB1D4FEA00614FEA102042BF002074
:1003700010BC704700EBC35010440029A4BF10BC50
:100380007047401C490008BF20F0010010BC7047B6
:1003900010B5141E73F1000408DA401C41F100018D
:1003A00092185B411A4301D120F0010010BD2DE9E4
:1003B000F04D92469B4611B1B1FA81F202E0B0FADB
:1003C00080F22032904600F099F904460F4640EA48
:1003D0000A0041EA0B0153465A46084313D011461E
:1003E00053EA010019D0C8F14002504600F095F9D7
:1003F00005460E4650465946424600F07FF90843EE
:1004000005D0012004E020463946BDE8F08D0020EB
:10041000054346EAE0762C4337430A986305E40A2D
:10042000A0EB08000022FD0A44EA47540A3002D536
:1004300000200146E9E7010510196941DDE9084599
:1004400000196941BDE8F04DA2E72DE9FE4F804655
:1004500081EA0300C00F0C46009021F0004123F018
:100460000045B8EB0200A94105D24046214690461E
:100470001C460B46024623F00040104347D0270D90
:10048000C7F30A00C3F30A510290401A01904028B2
:100490006BDAC3F3130040F4801B0098924620B13E
:1004A0000023D2EB030A63EB0B0B01985946C0F112
:1004B0004002504600F022F906460D465046594685
:1004C000019A00F03AF910EB08006141002487EA34
:1004D000115284EAE7731A4340D0009A62B3019A3A
:1004E000012A4FEA075215DC001B61EB02014FF0B5
:1004F000004202EA0752CDE90042001C41F580119A
:1005000032462B46FFF753FF03B0BDE8F08F40465D
:100510002146F9E7001B61EB0201001C41F5801345
:1005200000185B412018A2F5001747EB030140EAD1
:10053000D570B6196D4111E06D084FEA360645EAEF
:10054000C0754FEA0752001B61EB0201001C41F528
:10055000801149084FEA30000019514132462B46BC
:1005600003B0BDE8F04FFFF713BF00980122400031
:100570000023D0EB020263EBE073009821464FEAC0
:10058000E074B8EB000061EB0401E9E783F000439D
:100590005BE781F0004158E72DE9F04D81EA030463
:1005A00004F0004B21F0004514464FF0000A23F000
:1005B000004150EA050220D054EA01021DD0C5F3E3
:1005C0000A570246C5F31303C1F31300C1F30A56D9
:1005D00040F4801543F48013A7EB0608101BD646A1
:1005E00008F2FD3873EB050002D308F1010801E0C1
:1005F00092185B41B8F1000F03DA00200146BDE814
:10060000F08D00204FF48011064684460EE0171B43
:1006100073EB050705D3121B63EB050306434CEA96
:10062000010C49084FEA300092185B4150EA01077B
:10063000EDD152EA030012D082EA040083EA0501F8
:10064000084305D0101BAB4106D20122002306E06F
:1006500000224FF0004302E06FF0010253101AEB4A
:1006600006004CEB085110EB0A0041EB0B01BDE812
:10067000F04DFFF78DBEC1F30A52C1F3130140F2F2
:10068000FF3341F480119A4202DA0020014670479C
:1006900040F233439A42A2F2334202DC524200F06B
:1006A0003CB800F02BB8000030B5041E71F1000416
:1006B00004DB4FF00044404264EB0101141E73F16F
:1006C000000405DB1C464FF00043524263EB040379
:1006D000994208BF904230BD064C074D06E0E068E5
:1006E00040F0010394E8070098471034AC42F6D379
:1006F000FFF722FD1418000834180008202A04DB34
:10070000203A00FA02F1002070479140C2F1200324
:1007100020FA03F3194390407047202A04DB203A63
:1007200021FA02F00021704721FA02F3D040C2F111
:1007300020029140084319467047202A06DBCB1758
:10074000203A41FA02F043EAE07306E041FA02F38C
:10075000D040C2F120029140084319467047000082
:1007600070B50A4D4FF408742146284600F02CF865
:10077000012804D1284600F024F8054A10802146BB
:100780002846BDE8704000F005B800000028014090
:1007900020000020090AC94301607047002904D0E5
:1007A000816841F0010181607047816821F0010199
:1007B00081607047014600208968490700D5012003
:1007C0007047C06C80B2704710B5024600200B0A1B
:1007D0005468C9B20C401168194202D0002C00D0F4
:1007E000012010BD014600208968090700D50120BD
:1007F0007047C9B2002A03D042680A43426070477A
:1008000042688A434260704710B542680E4B1A40F6
:100810000C790B6842EA04221343436082680B4B55
:100820001A40D1E9024323434C7942EA440213437C
:100830008360C26A22F47002097C491EC9B242EA8E
:100840000151C16210BD0000FFFEF0FFFDF7F1FF96
:1008500070B5072609290AD9C568A1F10A0404EB75
:100860004404A640B543A3401D43C56007E00569A5
:1008700001EB4104A640B543A3401D4305611F237E
:10088000072A09D2446B521E02EB820293409C431A
:1008900091400C43446370BD0D2A09D2046BD21FF2
:1008A00002EB820293409C4391400C43046370BD71
:1008B000C46A0D3A02EB820293409C4391400C4380
:1008C000C46270BD816841F00801816070470029F1
:1008D00004D0816841F4A00181607047816821F4EF
:1008E000A00181607047816841F004018160704718
:1008F00008B50121102000F053F90220ADF80000E6
:1009000000208DF803006946014800F0ABF808BDEF
:100910000010014010B5FFF7EBFF00F005F8BDE84F
:10092000104000F043B8000010B586B001218802E5
:1009300000F036F90021019101208DF809004FF4F3
:100940006022039204918DF81400174C01A92046EF
:10095000FFF75AFF4FF4404000F018F90523012239
:100960000B212046FFF774FF01224FF40871204647
:10097000FFF73FFF01212046FFF710FF2046FFF75A
:10098000A1FF2046FFF72EFF0028FAD12046FFF7EF
:10099000AAFF2046FFF70EFF0028FAD101212046CA
:1009A000FFF795FF06B010BD0028014008B54FF4D1
:1009B000C06000F0DFF812208DF8000001208DF8F3
:1009C00001008DF802008DF80300684600F0A0F8E1
:1009D00008BDFEE710B586B00121042000F0E0F864
:1009E0004FF40070ADF8140018208DF817000320A4
:1009F0008DF81600164C05A9204600F033F8211595
:100A0000ADF8141004218DF8171005A9204600F048
:100A100029F80121880300F0C3F84FF4E130019078
:100A20000020ADF80800ADF80A00ADF80C00ADF8F4
:100A300010000C20ADF80E00064C01A9204600F075
:100A4000ADF90121204600F095F906B010BD000077
:100A50000008014000380140704700E0401E0028B7
:100A6000FCD170472DE9F0410022CC7804F00F034F
:100A7000E40601D58C7823430C784FF00F0714F06F
:100A8000FF0F4FF0010C1CD005680CFA02F40E8821
:100A90002640A64211D1960007FA06F825EA080575
:100AA00003FA06F848EA0505CE78282E02D0482E2B
:100AB00002D002E0446100E00461521C082AE4D341
:100AC00005600A88FF2A1ED94568002202F108063F
:100AD0000CFA06F40E882640A64210D1960007FABA
:100AE00006F825EA080503FA06F848EA0505CE786F
:100AF000282E00D14461CE78482E00D10461521CCA
:100B0000082AE3D34560BDE8F081FEE7FEE77047C1
:100B100070B50F23C27801260178002A1ED0144A2E
:100B2000126802F4E062C2F5E062120AC2F1040443
:100B3000D3404578A54082781A402A43120101F13A
:100B4000E02181F80024007800F01F018E40400968
:100B5000800000F1E020C0F8006170BD01F01F00CE
:100B600086404809800000F1E020C0F8806170BD37
:100B70000CED00E00249084302490860704700009C
:100B80000000FA050CED00E070470000034A5168D0
:100B900021F44041014351607047000000100240C1
:100BA000054A002903D09169014391617047916919
:100BB00081439161704700000010024010B5264A41
:100BC000516801F00C01254B002927D0042927D0BA
:100BD000082927D00360516801F0F0010909204B72
:100BE0005C5C0168E1404160546804F4E064240AFC
:100BF0001C5D21FA04F48460546804F46054E40A2F
:100C00001B5DD940C160526802F44042920B144B04
:100C10001B1F9A5CB1FBF2F1016110BD0360DAE7C2
:100C20000360D8E7516801F47011536803F480330E
:100C3000022404EB914133B153689B0307D5094B60
:100C400059430160C7E7074B59430160C3E7034BB2
:100C500059430160BFE700000010024000127A0013
:100C60000400002000093D00704700F001B80000BA
:100C70000CB50022019200922748016841F48031AE
:100C800001604FF4A063016801F400310091019903
:100C9000491C0191009911B901999942F3D1016858
:100CA000890302D50121009100E0009200990129F9
:100CB00030D11A490A6842F010020A600A6822F02C
:100CC00003020A600A6842F002020A604168416059
:100CD00041684160416841F480614160416821F4AC
:100CE0007C114160416841F4E8114160016841F0C4
:100CF0008071016001688901FCD5416821F0030120
:100D00004160416841F0020141604168C1F38101E5
:100D10000229FAD10CBD0000001002400020024060
:100D20007047000010B50F48016841F001010160F3
:100D300041680D4A1140416001680C4A1140016050
:100D4000016821F480210160416821F4FE014160C5
:100D50004FF41F018160FFF788FF05494FF00060E5
:100D6000086010BD001002400000FFF8FFFFF6FE13
:100D700008ED00E0002904D0818941F4005181810F
:100D80007047818921F4005181817047024600201B
:100D900012880A4200D001207047000030B585B0AB
:100DA00004460D46208A4CF6FF710840E98801434D
:100DB0002182A0894EF6F3110840A9882A8911439F
:100DC0006A8902431143A181A08A4FF6FF4108407E
:100DD000A9890143A1826846FFF7F0FE1D488442BD
:100DE00001D1039800E00298A189090408D500EB1D
:100DF000C00101EB001029684900B0FBF1F007E0E9
:100E000000EBC00101EB001029688900B0FBF1F094
:100E10006422B0FBF2F109010B096FF018056B4376
:100E200000EB8300A3891D044FF0320307D503EBC9
:100E3000C000B0FBF2F000F00700084306E003EB4F
:100E40000010B0FBF2F000F00F000843208105B065
:100E500030BD000000380140C1F3080181807047B7
:100E6000FEE700000FB4054B10B503A9044A029831
:100E700000F0CAF810BC5DF814FB00003917000838
:100E80002400002002E008C8121F08C1002AFAD17D
:100E900070477047002001E001C1121F002AFBD1FA
:100EA000704700002DE9FF5FDDE90220010DDDF84C
:100EB00038B0024318D044F61050A1F2FF3141433C
:100EC0000D140F98012820D0A5EB0B00401C5FEA01
:100ED000000A4FF00004474EDFF81C91A046504630
:100EE00016D5CAF1000728E00F98012443A2012873
:100EF00008D0002100980F9BC0E90021C0E90243FF
:100F0000BDE8FF9F6FEA0B01F4E7CBF10000DEE7DD
:100F1000074612E0F80707D02246334640464946C6
:100F2000FFF72EF980468946224633461046194679
:100F3000FFF726F904460E467F10002FEAD1DDE9BF
:100F40000201BAF1000F42464B4602DAFFF718F9E8
:100F500001E0FFF721FB04460E460022284BFFF775
:100F6000A3FB03D84FF0FF30014607E00022254BDA
:100F700020463146FFF769FAFFF77DFB102409E0B0
:100F8000002C0ADB0A220023FFF79AF9019B30327A
:100F90001A55641E50EA0102F2D1641C019AC4F190
:100FA000110314440F9A012A03D0012208430DD1E2
:100FB0000AE0084304D000204FF0110B0F9080E7A7
:100FC000A3EB0B056D1E0DE05B4504DD4FF0000249
:100FD00005F1010504E003DA4FF00002A5F1010577
:100FE000002AECD000980F99C0E90231C0E9004511
:100FF00086E70000000024400000F03F30000000C1
:101000000000F0430000E03F2DE9FF4F95B09B4604
:101010008946064600250FE2252877D10024274679
:10102000F84A0121059400E0044316F8013F203BF3
:1010300001FA03F01042F7D130782A2811D06FF06E
:101040002F033078A0F13002092A16D8059A44F00F
:10105000020402EB820203EB42021044761C05906C
:10106000EFE759F8042B0592002A03DA504244F4C2
:101070000054059044F00204761C30782E2816D1D6
:1010800016F8010F44F004042A280DD06FF02F0247
:101090003078A0F13003092B09D807EB870302EB66
:1010A0004303C718761CF3E759F8047B761C3078A5
:1010B0006C280FD006DC4C2817D068280DD06A2881
:1010C00014D104E0742810D07A280FD10DE044F434
:1010D00000140AE044F4801401E044F440147278EF
:1010E000824202D104F58014761C761C3078662882
:1010F0000BD013DC582877D009DC002875D04528A0
:10110000F6D04628F4D047281AD19DE118E063288C
:1011100035D0642879D0652812D195E1702873D034
:1011200008DC6728F1D069286FD06E280DD06F28B1
:1011300006D1B5E073282CD0752875D0782874D0E6
:101140005A46179990476D1C75E1C4F30250022866
:1011500009D003280DD0D9F8001004280DD00D6057
:1011600009F1040967E1D9F80010EA17C1E9005252
:10117000F6E7D9F800100D80F2E70D70F0E719F8E6
:10118000041B8DF8001000208DF80100EA460120B4
:1011900003E059F804AB4FF0FF3061074FF0000156
:1011A00002D40DE008F101018846B9420FDA80450A
:1011B000F8DB1AF808100029F4D108E008F1010161
:1011C00088468142FADB1AF808100029F6D1059802
:1011D0005B46A0EB080721463846179A00F094FAC0
:1011E000284400EB080507E04DE029E10DE01AF87E
:1011F000010B5A4617999047B8F10108F7D25B46A0
:1012000021463846179A13E142E00A220092C4F3BD
:1012100002524FF0000A022A08D059F804CB032AE0
:101220004FEAEC710AD00DE029E02AE009F107014C
:1012300021F00702F2E802C1914609E00FFA8CFCA6
:101240004FEAEC71042A03D14FFA8CFC4FEAEC719F
:10125000002907DA0A460021DCF1000C61EB0201EB
:101260002D2202E0220504D52B228DF80420012234
:1012700003E0E20701D02022F7E7904659E00A2177
:1012800002E010220DE010214FF0000A00910BE067
:1012900010224FF0000A44F004040827009203E0F3
:1012A00008224FF0000A0092C4F30252022A05D02D
:1012B00059F804CB0021032A08D009E009F10701FD
:1012C00021F00702F2E802C1914605E01FFA8CFC0A
:1012D000042A01D10CF0FF0C4FF00008220728D59A
:1012E000702806D0009B83F0100353EA0A0305D050
:1012F0000EE040228DF80420012208E05CEA0102A1
:1013000006D030228DF804208DF805000222904688
:10131000009B83F0080353EA0A030AD15CEA010246
:1013200001D1620705D530228DF804204FF0010865
:101330007F1E582804D034A003900EA802900DE020
:1013400036A0F9E753466046009AFEF7B9FF844697
:101350000398825C0298401E029002705CEA0100D1
:10136000F0D1029806A9081A00F1200A600702D5F8
:1013700024F4803400E00127574502DDA7EB0A0082
:1013800000E0002000EB0A01009005984144401A5B
:101390000590E00306D45B462146179A059800F0B5
:1013A000B3F90544002706E001A85A46C05D179925
:1013B00090476D1C7F1C4745F6DBE0030CD55B4670
:1013C0002146179A059800F09FF9054404E0302063
:1013D0005A46179990476D1C0099481E00900029A5
:1013E000F5DC08E0029802995A460078491C0291FF
:1013F000179990476D1CBAF10001AAF1010AF1DCBE
:1014000065E10000092801003031323334353637C8
:101410003839616263646566000000003031323340
:1014200034353637383941424344454600000000E0
:1014300000F058F90544761C307800287FF4ECADB4
:1014400019B02846BDE8F08F620700D4062709F1DD
:10145000070222F0070CFCE80223E14603F00048F3
:101460005FEA080C02D00FF2702C0DE05FEA045C1A
:1014700002D50FF2682C07E05FEAC47C02D00FF2BD
:10148000602C01E0AFF2700C4FF0FF3823F0004306
:10149000CDF850C065280CD006DC452809D0462878
:1014A0001DD047283DD13DE0662818D067287ED161
:1014B00038E00021112F01DB112000E0781CCDE97C
:1014C000000106A90EA8FFF7EDFCDDE90F010E9A59
:1014D00003910021009207F1010A04914DE04FF0C1
:1014E00000400097CDE9011006A90EA8FFF7DAFC2D
:1014F000DDE90F0203920E9B11990022DDF80CA08A
:101500000093049211B9791C00EB010AB7EB0A00B1
:1015100004D4C0F1FF3007F1010A0490AAEB0700E0
:10152000019044E0012F00DA01270021112F01DD95
:10153000112000E03846CDE9000106A90EA8FFF70A
:10154000B1FCDDE90F010E9A039100210491009294
:10155000BA4621070CD40399514500DA8A46BAF1FC
:10156000010F05DD009AAAF10101515C302908D074
:10157000B84202DA10F1040F06DA0121CDE90110B8
:1015800015E0AAF10101E9E7002805DC049901440E
:101590000491AAEB000102E0411C514500DD8A469E
:1015A0000499401A401C01904FF00040029020071F
:1015B00004D40198504501DBCDF8048000208DF85B
:1015C0004F0002980DF14F07B0F1004F25D02B20AE
:1015D0000E9002984FF0020800280CDA4042029068
:1015E0002D200E9007E00A210298FEF753FE3031BD
:1015F000029007F8011DB8F10001A8F10108F2DC22
:1016000002980028EFD1791E0E980870307800F00B
:10161000200040F0450007F8020D12A8C01B00F1A1
:1016200007081498007800B1012000EB0A01019826
:1016300001EBE07105984144401A401E0590E0031B
:1016400006D45B462146179A059800F05DF80544DC
:101650001498007818B15A46179990476D1CE0030A
:1016600024D55B462146179A059800F04DF80544AD
:101670001CE00498002807DBDDE90301884203DD54
:101680000098405C179901E0179930205A4690471E
:10169000049805F10105401C04900198401E01903A
:1016A00004D12E205A46179990476D1CBAF10001BB
:1016B000AAF1010ADDDC05E017F8010B5A4617997B
:1016C00090476D1CB8F10001A8F10108F4DC5B46FD
:1016D0002146179A0598ABE62D0000002B0000006C
:1016E000200000002DE9F041044600251E46174663
:1016F000880404D405E039462020B0476D1C641EE0
:10170000F9D52846BDE8F0812DE9F04104460025D1
:101710001E469046C80301D5302700E020278804E4
:1017200004D505E041463846B0476D1C641EF9D526
:101730002846BDE8F081000070B50446064DE1B2D0
:101740002846FFF789FB80212846FFF71FFB00286A
:10175000F9D0204670BD000000380140FFF73AF98B
:10176000FFF7D8F814A0FFF77DFB194EDFF864905F
:10177000194DDFF868A06FF00B074FF0663830881E
:101780000446FEF76FFD3946FEF7EEFCFEF76FFDEF
:1017900042464B46FEF7F4FCC5E90001214610A085
:1017A000FFF760FBD5E9002314A0FFF75BFB504671
:1017B000FFF753F9E3E700000D0A414443C4A3CA0D
:1017C000FDD7AABBBBCAB5D1E9210D0A00000000B4
:1017D0002000002066660A4018000020EEFFFF008F
:1017E0000D0A4144435F436F6E76657274656456BB
:1017F000616C7565203D2025640D0A000D0AB2E27A
:10180000C1BFB5C4B5E7D1B9D6B5A3BA25662056D0
:101810000D0A000034180008000000202800000015
:10182000840E00085C180008280000200004000056
:10183000940E0008020406080000000001020304E0
:101840000102030406070809000000000000000070
:0C1850000000000000000000000000008C
:0400000508000131BD
:00000001FF
