:020000040800F2
:1000000000050020450100081F0D0008FD0500083F
:100010001D0D00080F040008FD110008000000007D
:1000200000000000000000000000000005100008B3
:100030009504000800000000210D0008BD10000814
:100040005F0100085F0100085F0100085F01000810
:100050005F0100085F0100085F0100085F01000800
:100060005F0100085F0100085F0100085F010008F0
:100070005F0100085F0100085F0100085F010008E0
:100080005F0100085F0100085F0100085F010008D0
:100090005F0100085F0100085F0100085F010008C0
:1000A0005F0100085F0100085F0100085F010008B0
:1000B0005F0100085F0100085F0100085F010008A0
:1000C0005F0100085F0100085F0100085F01000890
:1000D0005F0100085F0100085F0100085F01000880
:1000E0005F0100085F0100085F0100085F01000870
:1000F0005F0100085F0100085F0100085F01000860
:100100005F0100085F0100085F0100085F0100084F
:100110005F0100085F0100085F0100085F0100083F
:100120005F0100085F0100085F0100085F0100082F
:10013000DFF80CD000F03AF90048004741170008FA
:10014000000500200648804706480047FEE7FEE716
:10015000FEE7FEE7FEE7FEE7FEE7FEE7FEE7FEE777
:10016000C110000831010008D2B201E000F8012BF3
:10017000491EFBD270470022F6E710B513460A4627
:1001800004461946FFF7F0FF204610BDF0B480EAA0
:100190000102D40F4200B2EB410F02D202460846E0
:1001A00011464A0042D0C30DDDB2C1F3C752AD1AA9
:1001B000202D35DAC1F3160141F4000204B1524298
:1001C000C5F1200602FA06F12A411044B3EBD05FD4
:1001D00023D0C4B1012DA0EBC35009DCF0BC4FF01B
:1001E000004202EAC352DBB200F5000000F0AFB8F3
:1001F000400000F1807000EBC350A0F1807040EA35
:10020000D170490009E0490841EAC071A0EBC35030
:1002100000F50000400800EBC350F0BC00F08EB8C1
:100220006142012202EB4101001BF6E7F0BC70477E
:1002300081F00041AAE780F00040A7E780EA0102D0
:1002400010B502F00043400022D04A001FD0010E3A
:1002500001EB1261C0F35600C2F3560240F40000F5
:1002600042F40002A0FB022000047F39140400D0F5
:10027000401C50EA124001D44000491EC2B20C0694
:1002800004EBD010401C4008802A02D003E000207C
:1002900010BD20F00100002900DA0020184310BD35
:1002A000C10F80EAE0700844CA079623002100F0DD
:1002B0004EB820F00040C10DC0F3160040F400001D
:1002C0007F2901DA00207047962903DCC1F19601ED
:1002D000C84070479639884070472DE9F05F054661
:1002E000002092469B4688460646814640241BE0F5
:1002F000284641464746224600F079F853465A467A
:10030000C01A914110D311461846224600F060F8F9
:100310002D1A67EB01084F4622460120002100F00C
:1003200057F817EB00094E41201EA4F10104DFDC51
:10033000484631462A464346BDE8F09F0029A8BFFB
:100340007047401C490008BF20F00100704710B4FE
:10035000B0FA80FC00FA0CF050EA010404BF10BCB3
:10036000704749B1CCF1200421FA04F411FA0CF1E0
:1003700018BF012121430843A3EB0C01CB1D4FEA19
:1003800000614FEA102042BF002010BC704700EB14
:10039000C35010440029A4BF10BC7047401C490042
:1003A00008BF20F0010010BC70470000064C074D4C
:1003B00006E0E06840F0010394E807009847103435
:1003C000AC42F6D3FFF7B8FEB01E0008D01E0008FE
:1003D000202A04DB203A00FA02F100207047914005
:1003E000C2F1200320FA03F3194390407047202AFA
:1003F00004DB203A21FA02F00021704721FA02F3CF
:10040000D040C2F120029140084319467047FEE7F0
:1004100010B586B00121042000F084FC4FF4007078
:10042000ADF8140018208DF8170003208DF8160081
:10043000164C05A9204600F02EF82115ADF8141031
:1004400004218DF8171005A9204600F024F8012199
:10045000880300F067FC4FF4E13001900020ADF814
:100460000800ADF80A00ADF80C00ADF810000C2043
:10047000ADF80E00064C01A9204600F05DFE0121FA
:10048000204600F045FE06B010BD00000008014007
:100490000038014070472DE9F0410022CC7804F08B
:1004A0000F03E40601D58C7823430C784FF00F0737
:1004B00014F0FF0F4FF0010C1CD005680CFA02F489
:1004C0000E882640A64211D1960007FA06F825EAC2
:1004D000080503FA06F848EA0505CE78282E02D06A
:1004E000482E02D002E0446100E00461521C082A58
:1004F000E4D305600A88FF2A1ED94568002202F16C
:1005000008060CFA06F40E882640A64210D1960082
:1005100007FA06F825EA080503FA06F848EA050589
:10052000CE78282E00D14461CE78482E00D10461C7
:10053000521C082AE3D34560BDE8F081F0B5154CA4
:10054000002801DAE36900E06368C0F30346420D66
:10055000120185B2C0F301579540032F07D0C202A4
:100560000CD50322B240934343F0706209E023F0BC
:100570007062636823F07063636002E0AB4343F032
:10058000706201B12A43002801DAE261F0BD6260C5
:10059000F0BD000000000140806880B27047024654
:1005A000002092680A4200D00120704741617047E4
:1005B0000161704770B505460C460F4E3078002833
:1005C00003D100F01FFC01203070200AE1B2A138F5
:1005D000C0EB001202EB401001EB4000A13800021A
:1005E000C11700EB5170C0102946BDE870402022B1
:1005F00000F5CB1000F05EBC2C000020FEE710B52B
:10060000D32000F0EBFA00F0AFFA00F0ADFA00F002
:10061000ABFA4FF6FF7101EA002400F0A5FA20437F
:1006200010BD00E0401E0028FCD170472DE9F047C6
:1006300088B0144610231A4600F022FB2C2000F04C
:10064000CDFA21466846FFF7B5FF0025124FE9466F
:100650004FF6FF7A4FF4004819F815000AEA002017
:1006600009EB45014E780643002428FA04F0304295
:1006700003D0388900F0D6FA02E0F88800F0D2FA08
:10068000641CE4B2102CF0D36D1CEDB2102DE3D33A
:1006900008B0BDE8F0870000140000202DE9F04705
:1006A000203A96B2174FFD68AA88EB8802FB03F444
:1006B0004FEAE47C04EB5C74C4F3C7082C6806FBC7
:1006C000084900F0DDFA2C2000F088FA0025802689
:1006D00013E0002419F8050026FA04F1084203D0BB
:1006E000388900F09FFA02E0F88800F09BFA641C59
:1006F000E4B2082CEED36D1CEDB24545E9D3BDE85C
:10070000F0870000140000202DE9F04105460E4658
:1007100000241F4F37E07E2A1AD8F8687B8881882A
:100720002144994203D90024C18829448DB2C0884C
:10073000B9882844884201D900240025294620464A
:10074000FFF7ACFF761CF8688088204484B21AE07A
:10075000798804F11000884202D900241035ADB226
:10076000B98805F11000884201D90024002530889D
:10077000010201EB102082B229462046FFF756FF06
:100780001034A4B2B61C3278002AC4D1BDE8F0817E
:100790001400002038B50121084600F0C3FA0121F9
:1007A0001E48FFF7CBFE0121382000F0BBFA0420E1
:1007B000ADF8000010248DF8034003208DF80200EE
:1007C000174D69462846FFF766FEADF80040154C08
:1007D00069462046FFF75FFE2021ADF8001069460C
:1007E0002046FFF758FE4021ADF80010694620462C
:1007F000FFF751FE8021ADF8001069462046FFF753
:100800004AFE4FF6FF71ADF8001069460648FFF743
:1008100042FE04212846FFF7C9FE38BD0002300021
:100820000014014000100140000C014070B5044666
:10083000072C4AD8254D2C70E2074FF0F0004FF4FA
:10084000A07136D06980A880362000F0C7F9082052
:1008500040EA441000F0E6F92A2000F0BFF9002039
:1008600000F0E0F9002000F0DDF96888401EC0F3D8
:10087000072000F0D7F9A878401EC0B200F0D2F9E6
:100880002B2000F0ABF9002000F0CCF9002000F0A4
:10089000C9F9A888401EC0F3072000F0C3F92879E1
:1008A000401EC0B200F0BEF92C2000F097F90024E1
:1008B00006E06880A980C7E7E88800F0B3F9641C07
:1008C0006888A9884843A042F6D870BD140000206B
:1008D00010B54FF6FF742046FFF7A3FECF2000F0BF
:1008E0007DF9002000F09EF9812000F09BF9302076
:1008F00000F098F92046FFF794FEED2000F06EF925
:10090000642000F08FF9032000F08CF9122000F031
:1009100089F9812000F086F92046FFF782FEE82061
:1009200000F05CF9852000F07DF9102000F07AF9E4
:10093000782000F077F92046FFF773FECB2000F017
:100940004DF9392000F06EF92C2000F06BF90020F1
:1009500000F068F9342000F065F9062000F062F933
:100960002046FFF75EFEF72000F038F9202000F067
:1009700059F92046FFF755FEEA2000F02FF9002034
:1009800000F050F9002000F04DF92046FFF749FE35
:10099000B12000F023F9002000F044F91B2000F002
:1009A00041F92046FFF73DFEB62000F017F90A2076
:1009B00000F038F9A22000F035F92046FFF731FEAB
:1009C000C02000F00BF9352000F02CF92046FFF78D
:1009D00028FEC12000F002F9112000F023F9C52003
:1009E00000F0FCF8452000F01DF9452000F01AF950
:1009F000C72000F0F3F8A22000F014F9F22000F074
:100A0000EDF8002000F00EF9262000F0E7F80120B4
:100A100000F008F92046FFF704FEE02000F0DEF8C1
:100A20000F2000F0FFF8262000F0FCF8242000F052
:100A3000F9F80B2000F0F6F80E2000F0F3F809208A
:100A400000F0F0F8542000F0EDF8A82000F0EAF8EB
:100A5000462000F0E7F80C2000F0E4F8172000F042
:100A6000E1F8092000F0DEF80F2000F0DBF80720A5
:100A700000F0D8F8002000F0D5F8E12000F0AEF842
:100A8000002000F0CFF8192000F0CCF81B2000F077
:100A9000C9F8042000F0C6F8102000F0C3F80720C1
:100AA00000F0C0F82A2000F0BDF8472000F0BAF8A6
:100AB000392000F0B7F8032000F0B4F8062000F069
:100AC000B1F8062000F0AEF8302000F0ABF8382086
:100AD00000F0A8F80F2000F0A5F82046FFF7A1FDD0
:100AE000362000F07BF8C82000F09CF82046FFF785
:100AF00098FD2A2000F072F8002000F093F8002002
:100B000000F090F8002000F08DF8EF2000F08AF857
:100B10002046FFF786FD2B2000F060F8002000F053
:100B200081F8002000F07EF8012000F07BF83F20E3
:100B300000F078F82046FFF774FD3A2000F04EF8F8
:100B4000552000F06FF8112000F048F80548FFF735
:100B500068FD2046FFF765FDBDE81040292000F044
:100B60003DB80000FCBF0200F8B54FF6FF74ADF8C9
:100B7000004048208DF80300164D69462846FFF7CF
:100B80008AFC154E10213046FFF710FD80213046BB
:100B9000FFF70EFD40213046FFF70AFD20213046C9
:100BA000FFF704FD2846FFF7F7FC074620213046F3
:100BB000FFF7FEFC10213046FFF7FAFCADF80040CD
:100BC00010208DF8030069462846FFF764FC38467C
:100BD000F8BD0000000C01400010014070B5044653
:100BE0000E4D10212846FFF7E1FC80212846FFF733
:100BF000DDFC20212846FFF7DBFC0948046040218A
:100C00002846FFF7D3FC40212846FFF7D1FC2846B1
:100C1000BDE870401021FFF7CBBC00000010014080
:100C20000C0C014070B504460E4D10212846FFF70C
:100C3000BDFC80212846FFF7BBFC20212846FFF79A
:100C4000B7FC0948046040212846FFF7AFFC40216B
:100C50002846FFF7ADFC2846BDE870401021FFF79D
:100C6000A7BC0000001001400C0C014010B5FFF7BC
:100C700091FDFFF72DFEBDE810400620FFF7D6BD21
:100C80002DE9F04104460D4617461E462A20FFF77F
:100C9000A5FF200AFFF7C6FFE0B2FFF7C3FF3C4401
:100CA000641EC4F30720FFF7BDFFE0B2FFF7BAFFF1
:100CB0002B20FFF793FF280AFFF7B4FFE8B2FFF7F6
:100CC000B1FFAC19641EC4F30720FFF7ABFFE0B21D
:100CD000BDE8F041FFF7A6BF70B501460B4DE868CF
:100CE0006A88C3880020FFF7CBFF2C20FFF776FF30
:100CF000002404E0E888FFF795FF641CA4B2E868CC
:100D00006988C0884843A042F4DC70BD140000200C
:100D10000148C0687047000014000020FEE77047DB
:100D200070470000054A002903D091690143916191
:100D30007047916981439161704700000010024043
:100D400010B5264A516801F00C01254B002927D027
:100D5000042927D0082927D00360516801F0F00149
:100D60000909204B5C5C0168E1404160546804F46F
:100D7000E064240A1C5D21FA04F48460546804F4DD
:100D80006054E40A1B5DD940C160526802F44042DD
:100D9000920B144B1B1F9A5CB1FBF2F1016110BD69
:100DA0000360DAE70360D8E7516801F47011536813
:100DB00003F48033022404EB914133B153689B0365
:100DC00007D5094B59430160C7E7074B59430160F9
:100DD000C3E7034B59430160BFE700000010024026
:100DE00000127A000400002000093D00002904D010
:100DF000018841F0400101807047018821F04001E5
:100E00000180704710B586B001210420FFF78AFFEA
:100E10002020ADF8140018208DF8170003208DF85D
:100E20001600224C05A92046FFF735FB8021ADF8BE
:100E3000141005A92046FFF72EFB4021ADF8141031
:100E400048218DF8171005A92046FFF724FB102133
:100E5000ADF814108DF8171005A92046FFF71BFBFD
:100E600001210803FFF75EFF0020ADF80C00ADF88C
:100E70000800ADF80600ADF81000ADF80400ADF8BC
:100E80000000ADF80E004FF48270ADF8020060155E
:100E9000ADF80A00064C6946204600F07EF80121B4
:100EA0002046FFF7A3FF06B010BD00000008014078
:100EB000003001402DE9F04104460D461646114F21
:100EC00010213846FFF772FB032000F021F8C4F32D
:100ED000074000F01DF8C4F3072000F019F8E0B255
:100EE00000F016F8002404E000F00EF805F8010BFD
:100EF000641CB442F8D33846BDE8F0411021FFF736
:100F000057BB000000080140FF2000F001B80000BE
:100F10002DE9F0410746194C42F210752560184E34
:100F200004E02068401E2060401C0BD002213046A7
:100F300000F028F80028F4D03946304600F02BF8AD
:100F4000256009E0BDE8F041012000F043B82068C9
:100F5000401E2060401C0BD00121304600F012F8EA
:100F60000028F4D0304600F014F8C0B2BDE8F0819B
:100F7000BDE8F041022000F02DB800003000002054
:100F8000003001400246002012890A4200D00120B0
:100F90007047808970478181704730B5028802F4BC
:100FA00041530A884C88CD8822438C882C432243A5
:100FB0000C8922434C8922438C892243CC892243C9
:100FC0001A430280828B22F400628283098A0182A2
:100FD00030BD000010B5014602A000F01FFA00204D
:100FE00010BD000053504920BCECB2E2B3ACCAB112
:100FF000A3ACB4EDCEF3B4FAC2EBA3BA25640D0AE8
:1010000000000000704700F001B800000CB500229D
:10101000019200922748016841F4803101604FF449
:10102000A063016801F4003100910199491C01910C
:10103000009911B901999942F3D10168890302D548
:101040000121009100E000920099012930D11A4954
:101050000A6842F010020A600A6822F003020A607D
:101060000A6842F002020A604168416041684160DA
:10107000416841F480614160416821F47C11416024
:10108000416841F4E8114160016841F080710160FC
:1010900001688901FCD5416821F003014160416884
:1010A00041F0020141604168C1F381010229FAD196
:1010B0000CBD0000001002400020024070470000FC
:1010C00010B50F48016841F00101016041680D4A07
:1010D0001140416001680C4A11400160016821F42F
:1010E00080210160416821F4FE0141604FF41F013D
:1010F0008160FFF788FF05494FF00060086010BD70
:10110000001002400000FFF8FFFFF6FE08ED00E0CF
:10111000002904D0818941F400518181704781897F
:1011200021F40051818170470246002012880A4252
:1011300000D001207047000030B585B004460D4650
:10114000208A4CF6FF710840E98801432182A0897A
:101150004EF6F3110840A9882A8911436A8902438F
:101160001143A181A08A4FF6FF410840A98901439C
:10117000A1826846FFF7E4FD1D48844201D103982F
:1011800000E00298A189090408D500EBC00101EB39
:10119000001029684900B0FBF1F007E000EBC00146
:1011A00001EB001029688900B0FBF1F06422B0FB6C
:1011B000F2F109010B096FF018056B4300EB830096
:1011C000A3891D044FF0320307D503EBC000B0FB29
:1011D000F2F000F00700084306E003EB0010B0FB5C
:1011E000F2F000F00F000843208105B030BD000090
:1011F00000380140C1F3080181807047FEE700E03C
:10120000401E0028FCD1704738B501211020FFF79F
:1012100089FD4FF48070ADF8000010208DF80300B8
:1012200003208DF80200144D69462846FFF733F974
:101230006C15ADF8004069462846FFF72CF96200AE
:10124000ADF8002069462846FFF725F9A200ADF861
:10125000002004228DF8032069462846FFF71BF979
:10126000E200ADF8002069462846FFF714F9214650
:101270002846FFF79BF938BD001001402DE9F043E7
:101280008BB007460024282101A8FEF774FF01AEA9
:10129000902000F043F805460120FFF7B0FFD02072
:1012A00000F03CF826F8145006EB44018882641CD8
:1012B000E4B20A2CECD32ED1BDF804402546BDF88B
:1012C0001880A4464046012136F81120A24201D9D7
:1012D000144602E0AA4200D2154606EB41039B8A5F
:1012E000434501D91C4602E0434500D21D466244F5
:1012F0001FFA82FC184480B2491CC9B20A29E3D300
:10130000ACEB0401491BC9103980A0EB0800A0EB2D
:101310000800C01078800BB0BDE8F08370B50646B9
:10132000094D4FF4007421462846FFF73FF9304637
:1013300000F040F800F00AF8064621462846FFF77C
:1013400037F9304670BD0000001001402DE9F0472C
:101350000025174F4FF4807841463846FFF728F9AB
:1013600039153846FFF722F900244FF6FF794FF47C
:10137000006A09EA450641463846FFF717F9052095
:10138000FFF73DFF41463846FFF712F95146384610
:10139000FFF705F940EA0605641CE4B20C2CE8D31B
:1013A0004FF400713846FFF703F92846BDE8F0878F
:1013B000001001402DE9F0410546174E4FF48077AB
:1013C00039463046FFF7F2F84FF480684146304620
:1013D000FFF7ECF80024280604D541463046FFF715
:1013E000E7F803E041463046FFF7E0F80520FFF755
:1013F00006FF39463046FFF7DBF80520FFF7FFFE12
:1014000039463046FFF7D2F86806050E641CE4B290
:10141000082CE0D3BDE8F081001001400FB4054B6B
:1014200010B503A9044A029800F018F810BC5DF842
:1014300014FB00001D170008F800002002E008C897
:10144000121F08C1002AFAD170477047002001E03E
:1014500001C1121F002AFBD1704700002DE9FF4F88
:101460008DB09B460F460446002606E025280BD08B
:101470005A460F999047641C761C20780028F5D1B5
:1014800011B03046BDE8F08F0025A84601229849EA
:1014900000E0054314F8013F203B02FA03F0084244
:1014A000F7D120782E2817D114F8010F45F0040544
:1014B0002A280ED06FF02F022078A0F130010929E0
:1014C0000AD808EB880102EB410100EB0108641C1B
:1014D000F2E757F8048B641C20786C280DD004DCEC
:1014E0004C2812D06A2811D104E074280DD07A2833
:1014F0000CD10AE045F4001507E0617845F4801549
:10150000814202D1641C05F58015641C2278692A89
:1015100045D008DC002AB3D0582A69D0632A10D0FD
:10152000642A08D13BE0702A67D0732A13D0752A49
:101530005CD0782A5CD010465A460F999047761CAA
:10154000D3E017F8040B8DF8000000208DF801009F
:10155000E946012003E057F8049B4FF0FF3069078C
:101560004FF0000501D40AE06D1C45450DDA8542B7
:10157000FADB19F805100029F6D106E06D1C85424A
:10158000FCDB19F805100029F8D12E4404E019F805
:10159000010B5A460F9990476D1EF8D2A5E00A201C
:1015A0000021CDE90801C5F3025002280DD001CF7A
:1015B000C117031E71F100030DDA4FF0000CD0EBE0
:1015C0000C006CEB01012D2308E0FF1D27F007073D
:1015D000F7E80201EDE72B0504D52B238DF8283021
:1015E00001233BE0EB0739D02023F7E70A2000E096
:1015F00010200021CDE9080107E01020002145F06E
:101600000405CDE908014FF00808C5F3025002288F
:101610000FD001CF00214FF0000A2B071FD5702AF1
:101620000DD0DDE908C38CF0100C5CEA030C0CD083
:1016300015E0FF1D27F00707F7E80201EBE740225E
:101640008DF828204FF0010A0BE050EA010306D084
:1016500030238DF828308DF8292002239A46582A05
:1016600004D024A20DF120090B9209E026A2F9E78B
:10167000DDE90823FEF731FE0B9B9B5C09F8013D79
:1016800050EA0102F4D1ADEB090020300890680760
:1016900001D44FF001080899884502DDA8EB01004C
:1016A00000E000208046002506E00AA85A46405D7A
:1016B0000F9990476D1C761C5545F6DB04E03020F1
:1016C0005A460F999047761CB8F10001A8F101081D
:1016D000F5DC05E019F8010B5A460F999047761C86
:1016E0000899481E08900029F4DC641CC5E6000037
:1016F00009280100303132333435363738396162E8
:1017000063646566000000003031323334353637AB
:1017100038394142434445460000000070B5044654
:10172000064DE1B22846FFF765FD80212846FFF708
:10173000FBFC0028F9D0204670BD000000380140B5
:1017400008B500200090FEF763FE1EA0FFF766FEBE
:10175000FFF78CFAFFF758FDFEF751FF01461FA077
:10176000FFF75CFEFFF7D4FAC08821A1FEF7CCFF9B
:10177000244D4FF4805421462846FEF710FF0028E0
:10178000F9D121A0FFF74AFE684600F05BF8BDF8EA
:101790000220BDF8001020A0FFF740FEFFF7B8FAC6
:1017A000C088BDF802108842E5D1FFF7B1FAC088C1
:1017B000FFF792FAFFF7ACFAC0881DA1FEF7A4FF6D
:1017C000D9E700000D0A4C434420D2BABEA7CFD4BB
:1017D000CABECAB5D1E90D0A00000000B6C1C8A151
:1017E000B5BDB5C44944203D2025780D0A00000050
:1017F0002020202020202020202020BFAACABC2179
:1018000000000000001001400D0ABCECB2E2B5BDC2
:10181000B4A5C3FE0D0A00006164635F78203D201B
:1018200025642C206164635F79203D2025640000DD
:1018300020202020202020202020BBB6D3ADCAB9F4
:10184000D3C321002DE9F04106461C48FFF716FDE1
:101850001A4DB5F90200FEF723FD05F19404616805
:10186000FEF7ECFC0746B5F90000FEF719FD21680C
:10187000FEF7E4FC3946FEF789FCA168FEF786FC1A
:10188000FEF717FD3080B5F90200FEF709FD21696A
:10189000FEF7D4FC0746B5F90000FEF701FDE1684C
:1018A000FEF7CCFC3946FEF771FC6169FEF76EFC71
:1018B000FEF7FFFC7080BDE8F081000034000020DE
:1018C0000000000000000000000000000000000018
:1018D0000000001818181818180800081800000050
:1018E0000000003424242400000000000000000058
:1018F0000000000016247F2424247E2424000000FD
:10190000000000083E6848681C1612127C10100087
:1019100000000061D296740810162949C600000024
:10192000000000003C646438724ACE467F0000002C
:101930000000001818181800000000000000000047
:1019400000000004081810303030301010180C045B
:10195000000000201008080C0404040C08181020D3
:10196000000000080A341C6A0800000000000000A3
:101970000000000000001818187F18181800000058
:1019800000000000000000000000001818083000EF
:101990000000000000000000003C0000000000000B
:1019A0000000000000000000000000181800000007
:1019B0000000000206040C0808101020204000005F
:1019C000000000003C6642475B7342663C0000003A
:1019D0000000000018784808080808087E00000089
:1019E000000000003C460606040810207E000000AF
:1019F000000000007C0606043C0202067C00000099
:101A0000000000000C1C14246444FF0404000000C7
:101A1000000000007E6060607E0202067C00000024
:101A2000000000001E306048764242623C00000028
:101A3000000000007E0206040C08181030000000B0
:101A4000000000003C6242361C6642423C0000003E
:101A5000000000003C664242661A02047800000062
:101A60000000000000001818000000181800000016
:101A700000000000000018180000001818083000CE
:101A800000000000000004183060100C0600000088
:101A900000000000000000007E007E00000000004A
:101AA000000000000000301804060C1020000000A8
:101AB000000000301C060606181000101000000080
:101AC0000000001C224141DDB5A5A5AF94C0403CFB
:101AD00000000000181C342426627E43C100000070
:101AE000000000007C4642467C4242427C000000EE
:101AF000000000001E204040404040603E000000CA
:101B0000000000007C464243434342467800000008
:101B1000000000007E6060607E6060607E0000000B
:101B2000000000007E6060607E6060606000000019
:101B3000000000001E604040CE4242623E000000B5
:101B400000000000424242427E4242424200000007
:101B5000000000007E181818181818187E000000E1
:101B6000000000007C040404040404447800000025
:101B7000000000004244485070584C4442000000AD
:101B80000000000020202020202020203E00000017
:101B9000000000006266675F5B5BC1C1C1000000BE
:101BA00000000000626272525A4A4E46460000002F
:101BB000000000003C6243C3C3C343623C0000001A
:101BC000000000007C464242467840404000000051
:101BD000000000003C6243C3C3C343623C180F00D3
:101BE000000000007C6662667C6C64666200000037
:101BF000000000003E6040601C0602027C00000005
:101C0000000000007F181818181818181800000095
:101C10000000000042424242424242623C00000058
:101C200000000000C14342622624341C180000005A
:101C300000000000C1C141495B5B766666000000A0
:101C40000000000043663418181C2466C30000001E
:101C500000000000C14266341C181818180000006B
:101C6000000000007E02040C181020607E000000BE
:101C70000000001C10101010101010101010101C7C
:101C8000000000402020101008080C04060200008C
:101C90000000003C0C0C0C0C0C0C0C0C0C0C0C3C48
:101CA00000000000181C246200000000000000007A
:101CB000000000000000000000000000000000FF25
:101CC00000000020100000000000000000000000E4
:101CD0000000000000003C06023E42467A00000080
:101CE0000000004040405C62424242427C000000F2
:101CF0000000000000001E20604060203E00000048
:101D00000000000202023E62424242663A000000C7
:101D10000000000000003C62427E40603E00000087
:101D20000000000F1810107E10101010100000009E
:101D30000000000000003F66426658403E43423CBF
:101D40000000004040405C624242424242000000CB
:101D50000000001818007808080808087E00000035
:101D6000000000040C007C040404040404040C7847
:101D7000000000606060626C78706864620000005F
:101D80000000007808080808080808087E0000001D
:101D9000000000000000764B4B4B4B4B4B0000000B
:101DA0000000000000005C6242424242420000002B
:101DB0000000000000003C62424342623C00000020
:101DC0000000000000005C62424242427C40404011
:101DD0000000000000003E62424242663A020202F7
:101DE0000000000000006E72636060606000000030
:101DF0000000000000003E20203C06027C000000A5
:101E0000000000001010FE10101010101E00000046
:101E10000000000000004242424242663A000000D8
:101E2000000000000000434266243418180000003F
:101E3000000000000000C1C15B5A5E666600000041
:101E400000000000000062261C181C266200000032
:101E500000000000000043426624341C181830E0E3
:101E60000000000000007E060C1810207E0000001C
:101E70000000000E18101010307010101010180E06
:101E800000000808080808080808080808080808E2
:101E900000000030180808080C0E08080808183060
:101EA0000000000000000000714B06000000000070
:101EB000D01E000800000020FC0000003C140008B8
:101EC000CC1F0008FC000020040400004C14000893
:101ED00002040608000000000102030401020304DA
:101EE000060708090600F00040010000FFFF00009F
:101EF00024000020C01800080800100000000000A6
:101F00001027000000000000F6CFD3BBD10896BD1B
:101F1000D42D8C43A359993DD97A063BA578D1C0DD
:101F200065C5B03D6EDBF73AF3624DC1CCEC73BBD7
:101F3000A0C186BD39B77E433752363B7EFE7B3D1E
:101F4000F18739C1F3C9AA3DD40CA93BC4667AC153
:101F50002ECBB73DEC8497B9CEE5A4C1CA17B4BA6D
:101F6000E3FE833D996E80C18010493ADACA8BBD89
:101F70004BE47A438F39AFBDEA784CB9B35FA743DE
:101F8000438EADBDDE214538E294A14326370ABB1E
:101F900085ED87BD2F7E82439738F2BAE82E893DC2
:101FA00007EA4CC108CAADBDA30653BA9CB2A6430A
:101FB000E50AAFBD5DA365BAF702A743C32A5EBBBE
:0C1FC0008A8E843DE5C1C6C00000000010
:0400000508000131BD
:00000001FF
