:100DAB0057656C636F6D6520746F207573650D0AE5
:010DBB000037
:100D9A00120D857BFF7A0D79AB120862E4F580802B
:010DAA00FE4A
:100CD0004C454431204C696768740D0A004C45440A
:100CE00032204C696768740D0A004C454433204C2F
:100CF000696768740D0A004C454434204C69676884
:100D0000740D0A004C454435204C696768740D0A1F
:100D1000004C454436204C696768740D0A004C4508
:100D20004437204C696768740D0A004C45443820EC
:100D30004C696768740D0A00616C6C204C45442056
:080D4000636C6F73650D0A007E
:0B0DC800E59830E1FB5398FD8F992265
:100D8500758920759850758DFD439802D2ACD2AF08
:050D9500D28ED2AF2256
:03002300020B5C71
:100B5C00C0E0C0F0C083C082C0D075D000C000C05F
:0D0B6C0001C002C003C004C005C006C007E0
:100B7900C298859923E523B4310AD2807BFF7A0C88
:100B890079D08077E523B4320AD2817BFF7A0C7958
:100B9900DD8068E523B4330AD2827BFF7A0C79EAD7
:100BA9008059E523B4340AD2837BFF7A0C79F78024
:100BB9004AE523B4350AD2847BFF7A0D7904803B58
:100BC900E523B4360AD2857BFF7A0D7911802CE5AD
:100BD90023B4370AD2867BFF7A0D791E801DE5235F
:100BE900B4380AD2877BFF7A0D792B800EE523B4BE
:0E0BF900390C7580007BFF7A0D793812086286
:100C0700D007D006D005D004D003D002D001D00041
:0B0C1700D0D0D082D083D0F0D0E032EB
:03000000020DBC32
:0C0DBC00787FE4F6D8FD75814B020D9A9B
:100D6F008F0B8E0A8D098C08780874FF120C24ECF7
:060D7F004D4E4F70F322FF
:080D48008F0F8E0E8D0D8C0C37
:100D5000E4FB780C74FF120C24EC4D4E4F600FE452
:0E0D6000FBEBD394787480948050E70B80F303
:010D6E002262
:100C22007401FF3395E0FEFDFC080808E6CF2FF6BD
:100C320018E6CE3EF618E6CD3DF618E6CC3CF62296
:10080000E547243BF8E60547227838301002783B6C
:10081000E475F001120C9A020C422009EB7F2ED2F3
:10082000098018EF540F2490D43440D4FF300D0BBE
:10083000EF24BFB41A0050032461FFE5486002159D
:1008400048054BE54B7002054A30100D7838E475C9
:10085000F001120C9AEF020C88020DC87403D2103A
:100860008003E4C210F5478B388A39893AE4F548A9
:10087000F54AF54BE54860077F2012083B80F57587
:1008800049FFC20AC209C20BC20CC20EC20FC2117A
:10089000120809FF700D3010057F0012084CAF4B95
:1008A000AE4A22B4255FC2D5C20D120809FF24D07A
:1008B000B40A00501A75F00A784830D50508B6FF1A
:1008C0000106C6A426F620D5047002D20C80D924D5
:1008D000CFB41A00EF5004C2E5D20D020A4CD20A7E
:1008E00080C6D20980C0D20B80BCD2D580BAD20ECD
:1008F00080B47F2012083B200B077401B5480040EC
:10090000F1120800FF12083B020874D211D20F80C6
:1009100095120800FB120800FA120800F94A4B7001
:1009200006791D7A0B7BFF200B2EE548602A7E009E
:100930008E82758300120C5B60060EEE654970F0C6
:10094000C2D5EBC0E0EAC0E0E9C0E0EE120A93D005
:10095000E0F9D0E0FAD0E0FB120C42FF60AAEBC055
:10096000E0EAC0E0E9C0E012083BD0E02401F9D0A1
:10097000E03400FAD0E0FBE5490460DCD549D980D9
:10098000877BFF7A0A798FD20B809C79108002795D
:1009900008C20FC2118008D2D5790A8004790AC230
:1009A000D5E549047002F549E4FAFDFEFF1208009E
:1009B000FC7B08200A13120800FD7B1030090A1284
:1009C0000800FE120800FF7B20EC3382D592D55040
:1009D00013C3E43009069FFFE49EFEE4200A039D52
:1009E000FDE49CFCE4CBF8C20AEC700CCFCECDCC7D
:1009F000E824F8F870F38017C3EF33FFEE33FEED11
:100A000033FDEC33FCEB33FB994002FB0FD8E9EBF1
:100A1000300A05F8D0E0C448B20AC0E00AEC4D4EF6
:100A20004F78207B0070C2EAB5490040BCC0E0129C
:100A30000A95D0F0D0E0200A04C4C0E0C4B20AC0D5
:100A4000F0120824D0F0D5F0EB020874120CAA09B9
:100A50001153098B5808E24C08DE42098F4F099761
:0F0A60004409974908F743099D550981460981C3
:100A6F00450981470B3D5008E62D08EA2E090D2B4D
:100A7F0008EE23090B200B262A08A64800000905BB
:100A8F003F3F3F00790AA2D5200C14300E09B91050
:100A9F00020404B9080104A2D5200F02500104205A
:100AAF000B68920BB548005034C0E07F20300C1912
:100ABF007F30A20B720F720E500F120AECC20BC2D4
:100ACF000FC20EC2117F30800F300E03E9C0E0124B
:100ADF00083B300E03D0E0F9D0E0B548CC300E170C
:100AEF007F30B9100C12083B7F58300D077F78808C
:100AFF0003B9080312083B300B057F2D02083B7F1B
:100B0F00202011F87F2B200FF322920B80CF286E1D
:100B1F00756C6C2900D20A120800300AF8C20A78E4
:100B2F004830D50108F60208A62D5043495812083F
:100B3F00002403B405004001E4900B389312082CF5
:0D0B4F00743A12082CD20C75480402098B70
:100C4200BB010689828A83E0225002E722BBFE02B0
:090C5200E32289828A83E49322E3
:100C5B00BB010CE58229F582E5833AF583E022504E
:100C6B0006E92582F8E622BBFE06E92582F8E22298
:0D0C7B00E58229F582E5833AF583E49322B2
:100C8800BB010689828A83F0225002F722BBFE014B
:020C9800F32245
:100C9A00FAE6FB0808E6F925F0F618E6CA3AF6225B
:100CAA00D083D082F8E4937012740193700DA3A3D9
:100CBA0093F8740193F5828883E4737402936860ED
:060CCA00EFA3A3A380DFED
:00000001FF
